:100000000C943A000C9457000C9457000C94570031
:100010000C9457000C9457000C9457000C94570004
:100020000C9457000C9457000C9457000C945700F4
:100030000C9457000C9457000C9457000C945700E4
:100040000C9457000C9457000C9457000C945700D4
:100050000C9457000C9457000C9457000C945700C4
:100060000C9457000C9457000C9457000C945700B4
:100070000C94570011241FBECFEFD4E0DEBFCDBFDC
:1000800011E0A0E0B1E0E0E0F7E002C005900D92E1
:10009000A034B107D9F721E0A0E4B1E001C01D927E
:1000A000A835B207E1F70E94C6020C947E030C94B7
:1000B00000009C01FC01FF2784A1832B84A395A150
:1000C000892F832B85A381E00895E1E6F0E080E8A5
:1000D00080831082A89584B7877F84BFE0E6F0E034
:1000E000808188618083108208951092800084E06E
:1000F0008093810010928500109284000895809171
:100100008400909185000895AC01809184009091C5
:1001100085009C01241B350B283E3340B0F7089521
:100120002091840030918500820F931F0C948400ED
:10013000CF93DF93EC010E9475009E0140E050E0F8
:1001400062E17AE780E090E00E943D033093440151
:1001500020934301DF91CF910895809141019091C7
:1001600042010E948400209141013091420180911E
:10017000430190914401820F931F90934201809319
:1001800041010895182F092FF62E0E9475000E9434
:100190007F00C12FD02F8E819F810E948400E88133
:1001A000F9818A819B8109952E813F818C819D8176
:1001B000820F931F9F838E830E947F00BC01E12FDB
:1001C000F02F4FEF5FEF90E09F1529F326813781E5
:1001D000DB01A21BB30B9D012F3FBFE73B0710F4D0
:1001E000EF01D9CF3195219531092417350710F446
:1001F000A901EF019F5F3896E7CF811105C0662303
:1002000011F0429A0895429808953A9A429A0895B0
:100210009C01FC01FF2784A1832B84A395A1892F36
:10022000832B85A381E00895CF93DF93C7E2D1E0CC
:10023000899199910E94080181E0C533D807C1F7DF
:1002400083E090E40E94080180E090E80E940801A9
:1002500083E090E10E94080183E090E80E94080199
:1002600083E090E2DF91CF910C940801E091450189
:10027000F0E0EE0FFF1FE35EFE4F20813181F901B8
:10028000FF2795A1932B95A3E7E2F1E097E020816A
:100290003181D901BB2795962C91959780FF03C09A
:1002A0003095232301C0232B95962C93869591504E
:1002B00032969111ECCFE62FF0E0EE0FFF1FE35ED8
:1002C000FE4F80819181FC01FF2785A190958923B4
:1002D00085A3609345010895853098F4673088F4CC
:1002E00021E030E001C0220F6A95EAF7E82FF0E044
:1002F000E95BFE4F922F9095808189234111822BDB
:1003000080830895853080F4673070F421E030E018
:1003100001C0220F6A95EAF7E82FF0E0E95BFE4F93
:100320008081282381E009F480E0089560914601EE
:10033000E62FF0E0E95BFE4F80810E94360180915C
:1003400046018F5F853018F480934601089510921E
:1003500046010895E7E4F1E01082118212821382CF
:10036000148208950E9414010C94AA0181110DC0F9
:1003700080914C01882329F090914D0181E08927DB
:1003800002C080E090E08170089580E008958111BE
:100390000BC080914C01811103C080914D0102C0BE
:1003A00080E090E08170089580E00895811103C09D
:1003B00080914C01089580E00895811105C09091CD
:1003C0004C0181E08927089580E00895ECE4F1E094
:1003D0008081818389B1881F8827881F8083089541
:1003E00057985F9808956230710519F170F4613083
:1003F000710559F5FC01FF2724A1392F3095922F63
:10040000932394A385A183231DC06330710541F01C
:1004100064307105D1F4FC01FF2784A1892B0FC042
:10042000FC01FF2784A1892B84A385A190958923B2
:1004300009C0FC01FF2784A1292F2095822384A3D2
:1004400085A1892B85A381E0089580E00895E82F98
:10045000F0E0EE0FFF1FE25BFE4F8081882321F06A
:10046000918181E0892702C080E090E08170089549
:10047000E82FF0E0EE0FFF1FE25BFE4F808181115D
:1004800002C0818102C080E090E081700895E82F71
:10049000F0E0EE0FFF1FE25BFE4F80810895E82F32
:1004A000F0E0EE0FFF1FE25BFE4F908181E08927B5
:1004B00008957F928F929F92AF92BF92CF92DF92D8
:1004C000EF92FF920F931F93CF93DF93CEE4D1E08F
:1004D00055E3C52E51E0D52E66E0762E88818983BE
:1004E000F601019111916F015801BB24F50124A17E
:1004F000E12EFF2485A190E08E219F2130E02E2166
:100500003F21232B31F0892B51F433E0832E912CA2
:100510000DC0892B41F488248394912C07C094E06A
:10052000892E912C03C082E0882E912C64E070E02B
:10053000C8010E94F30162E070E0C8010E94F3016B
:10054000872D8A95F1F7F50183A190E0E822F92241
:1005500081E0EF2809F080E08883B401C8010E949F
:10056000F3012296F1E0C835DF0709F0B7CFDF913C
:10057000CF911F910F91FF90EF90DF90CF90BF90A0
:10058000AF909F908F907F90089508950E9465008E
:1005900084EF91E00E94980083E090E40E9459006B
:1005A00080E090E80E94590083E090E10E945900A9
:1005B00083E090E80E94590083E090E20E94590095
:1005C000CFE0D1E0899199910E94590081E0CD312D
:1005D000D807C1F7C0E00E94AD008C2F90E0FC016D
:1005E000E050FF4F4081E0914001F0E0EE0FFF1F2F
:1005F000EB5FFE4F20813181F901FF2725A1232BDD
:1006000025A3EFE0F1E020E030E050E0BA01022E57
:1006100002C0759567950A94E2F760FF0AC0608191
:100620007181DB01BB2795966C9195977095672337
:1006300008C060817181DB01BB2795966C9195970D
:10064000672B95966C932F5F3F4F3296273031057D
:10065000E9F6880F991FFC01EB5FFE4F80819181C5
:10066000FC01FF2785A19095892385A3C0934001B4
:10067000CF5FC53008F4AFCFADCF052E97FB1EF48A
:1006800000940E94540357FD07D00E945C0307FCAE
:1006900003D04EF40C945403509540953095219519
:1006A0003F4F4F4F5F4F089590958095709561959E
:1006B0007F4F8F4F9F4F0895A1E21A2EAA1BBB1B9D
:1006C000FD010DC0AA1FBB1FEE1FFF1FA217B3071E
:1006D000E407F50720F0A21BB30BE40BF50B661F34
:1006E000771F881F991F1A9469F7609570958095F8
:1006F00090959B01AC01BD01CF010895F894FFCF07
:100700001C303C1C140340008003100380032000B5
:100710004000200010000800040002000103400017
:100720008003100380032000400020001000080018
:100730000400020001038003400320008003100036
:00000001FF
